{
  "contractName": "LandRegistry",
  "abi": [
    {
      "constant": true,
      "inputs": [
        {
          "name": "",
          "type": "uint256"
        }
      ],
      "name": "landOwners",
      "outputs": [
        {
          "name": "",
          "type": "address"
        }
      ],
      "payable": false,
      "stateMutability": "view",
      "type": "function"
    },
    {
      "constant": false,
      "inputs": [
        {
          "name": "landId",
          "type": "uint256"
        }
      ],
      "name": "register",
      "outputs": [
        {
          "name": "",
          "type": "uint256"
        }
      ],
      "payable": false,
      "stateMutability": "nonpayable",
      "type": "function"
    },
    {
      "constant": true,
      "inputs": [],
      "name": "getLandOwners",
      "outputs": [
        {
          "name": "",
          "type": "address[16]"
        }
      ],
      "payable": false,
      "stateMutability": "view",
      "type": "function"
    }
  ],
  "bytecode": "0x608060405234801561001057600080fd5b506102d8806100206000396000f300608060405260043610610057576000357c0100000000000000000000000000000000000000000000000000000000900463ffffffff1680631a0f76b11461005c57806369b441ac146100c9578063f207564e1461011c575b600080fd5b34801561006857600080fd5b506100876004803603810190808035906020019092919050505061015d565b604051808273ffffffffffffffffffffffffffffffffffffffff1673ffffffffffffffffffffffffffffffffffffffff16815260200191505060405180910390f35b3480156100d557600080fd5b506100de610192565b6040518082601060200280838360005b838110156101095780820151818401526020810190506100ee565b5050505090500191505060405180910390f35b34801561012857600080fd5b5061014760048036038101908080359060200190929190505050610213565b6040518082815260200191505060405180910390f35b60008160108110151561016c57fe5b016000915054906101000a900473ffffffffffffffffffffffffffffffffffffffff1681565b61019a610288565b6000601080602002604051908101604052809291908260108015610209576020028201915b8160009054906101000a900473ffffffffffffffffffffffffffffffffffffffff1673ffffffffffffffffffffffffffffffffffffffff16815260200190600101908083116101bf575b5050505050905090565b6000808210158015610226575060648211155b151561023157600080fd5b3360008360108110151561024157fe5b0160006101000a81548173ffffffffffffffffffffffffffffffffffffffff021916908373ffffffffffffffffffffffffffffffffffffffff160217905550819050919050565b610200604051908101604052806010906020820280388339808201915050905050905600a165627a7a723058209700baf894cc1d6c752344df5452405c2517b979dae7eb8ed93afe64414aea720029",
  "source": "pragma solidity ^0.4.24;\n\ncontract LandRegistry {\n  address[16] public landOwners;\n\n//Register a land\nfunction register(uint landId) public returns (uint) {\n  require(landId >= 0 && landId <=100);\n  landOwners[landId] = msg.sender;\n  return landId;\n}\n\n// Retrieving the land owners\nfunction getLandOwners() public view returns (address[16]) {\n  return landOwners;\n}\n}\n",
  "sourcePath": "/Users/zintun/Documents/Code/develop/contracts/LandRegistry.sol",
  "compiler": {
    "name": "solc",
    "version": "0.4.24+commit.e67f0147.Emscripten.clang"
  },
  "schemaVersion": "2.0.1",
  "updatedAt": "2018-10-20T00:14:41.220Z"
}